:020000040C00EE
:100000000088FE1F010200089902000899020008FA
:1000100099020008990200089902000800000000F7
:10002000000000000000000000000000990200082D
:1000300099020008000000009902000899020008D7
:100040009902000899020008990200089902000824
:100050009902000899020008990200089902000814
:1000600099020008000000000000000000000000ED
:100070009902000800000000990200089902000897
:1000800099020008990200089902000899020008E4
:1000900099020008990200089902000899020008D4
:1000A00099020008990200089902000899020008C4
:1000B00099020008990200089902000899020008B4
:1000C00099020008990200089902000899020008A4
:1000D0009902000899020008990200089902000894
:1000E0009902000899020008990200089902000884
:1000F0009902000899020008990200089902000874
:100100009902000899020008990200089902000863
:100110009902000899020008990200089902000853
:100120009902000899020008990200089902000843
:100130009902000899020008990200089902000833
:100140009902000899020008990200089902000823
:100150009902000899020008990200089902000813
:10016000000000000000000000000000000000008F
:1001700099020008990200089902000899020008F3
:1001800099020008990200089902000899020008E3
:1001900099020008990200089902000899020008D3
:1001A00099020008990200089902000899020008C3
:1001B00099020008990200089902000899020008B3
:1001C00099020008990200089902000899020008A3
:1001D0009902000899020008990200080000000036
:1001E0009902000899020008990200089902000883
:1001F0009902000899020008990200080000000016
:10020000DFF874D01D4880471D4C1E4DAC4209DA02
:1002100021686268A368043BA2BFC858D050FAE7BF
:100220000C34F3E7184B194CA34208DA19685A68E2
:100230000020043AA4BF8850FBE70833F4E71448D1
:100240008047144880470000BC2F000C0088FE1F28
:1002500000010000BC2F000C0088FE1F0000000001
:100260000089FE1F200000000000002000000000A8
:1002700000000020000000000088FE1F9D02000812
:1002800048020008600200086002000878020008C6
:10029000B12D00089D2C0008FEE7000098B500AFC6
:1002A000054A4FF0005314460FCB84E80F0000F0CE
:1002B00005F801F02BFE98BDC4FF032080B483B085
:1002C00000AF72B6164B174A9A60BFF34F8F62B6F3
:1002D000134A134BD3F8883043F47003C2F88830C4
:1002E0000F4A0F4B5B6923F0080353610E4B03F574
:1002F000805314331B687B607B6823F00F037B60A3
:100300007B6843F004037B60074B03F58053143391
:100310007A681A600C37BD465DF8047B704700BFF1
:1003200000ED00E0000000080010005880B584B027
:1003300000AF2F4BDB6803F48033002B3ED02D4BF6
:10034000DB6803F00103002B02D02B4BFB6002E0C3
:1003500001F0BEFDF860274B1B6803F00403002B7F
:1003600020D0244B9B6803F070631B0E0133BB60ED
:10037000204B9B6803F4FE431B0A01337B601D4B3B
:100380009B6803F4FE031B0C01333B60BB683A68B7
:1003900002FB03F3FA68B2FBF3F37A6802FB03F3A0
:1003A000FB600DE0134B9B6803F07F0301333B6060
:1003B000FA683B68B2FBF3F3FB6001E00E4BFB60B5
:1003C0000B4BDB68DBB20133FA68B2FBF3F3FB6083
:1003D000074B1B6903F001030133FA68B2FBF3F327
:1003E000FB60064AFB6813601037BD4680BD00BF46
:1003F000004600501047005000366E01C0FF032039
:1004000080B485B000AFF8600B467A60FB72FB7A6F
:100410009B08DBB21846FB7A9B08DBB21A46FB68E6
:10042000043253F82220FB7A03F00303DB00194661
:10043000F8238B40DB4302EA0301FB68021D43F80B
:100440002210FB685A6FFB7A5B00194603238B402E
:10045000DB431A40FB685A67FB683A4A934203D071
:10046000FB68394A93420AD1FB681A6EFB7A012174
:1004700001FA03F3DB431A40FB681A6642E07B682B
:100480001B78DBB25BB2002B3CDA7B685A68FB7AE4
:100490009A40FB685A60FB7ADB08DBB21846FB7AAD
:1004A000DB08DBB21A46FB68103253F82220FB7AD5
:1004B00003F007039B00194607238B40DB4302EA46
:1004C0000301FB6800F1100243F82210FB7ADB08FD
:1004D000DBB21846FB7ADB08DBB21A46FB68103247
:1004E00053F822207B681B7A1946FB7A03F0070336
:1004F0009B0001FA03F342EA0301FB6800F11002DA
:1005000043F82210FB7A9B08DBB21846FB7A9B0863
:10051000DBB21A46FB68043253F822207B681B7852
:100520001946FB7A03F00303DB0001FA03F342EA06
:100530000301FB68021D43F822101437BD465DF825
:10054000047B7047008E0248008F024880B400AFE1
:10055000034B1B681846BD465DF8047B704700BF1F
:10056000C0FF032080B400AF034BD3F8C43018465B
:10057000BD465DF8047B70470040005080B584B0F4
:1005800000AF7860FFF7D2FE0B4B1B680B4AA2FB53
:1005900003239A0C7B6802FB03F37B600023FB6060
:1005A00003E000BFFB680133FB60FA687B689A4296
:1005B000F7D31037BD4680BDC0FF032083DE1B4349
:1005C00080B400AF034B5B681846BD465DF8047B02
:1005D000704700BF7440005080B483B000AF7860B3
:1005E000034A7B68D3600C37BD465DF8047B7047D7
:1005F00074400050B0B584B002AF7860002000F0C5
:10060000A1F800F093FA7B68DB79002B0AD000F0A8
:10061000CBFA00BF00F0B6FA034683F00103DBB269
:10062000002BF7D17B685B7A184600F005F900BF14
:10063000FFF798FF0346002BFAD17B681B7A184618
:1006400000F04EFA7B681B7C184600F013F97B68BB
:100650005B7C184600F036F97B689B7C184600F0FE
:100660001DF97B68DB7C184600F040F97B689B79BC
:10067000002B0AD000F0D0FA00BF00F0F5FA0346D4
:1006800083F00103DBB2002BF7D17B68DB78002B12
:1006900009D17B689B7983F00103DBB2002B17D073
:1006A00000F006FB14E000F0F3FA7B6899887B68A1
:1006B000DA787B685B781D467B681B781C467B6814
:1006C0009B780093084611462A46234600F000FB1B
:1006D0007B68DB68B3F5803F03D14FF4803000F0D6
:1006E00031F8FFF723FE0837BD46B0BD80B485B0B2
:1006F00000AF78607B681B0FFB607B6823F0704362
:10070000BB60FA6813465B0013449B001A46044B17
:100710001344BA681A601437BD465DF8047B70470D
:100720001444005080B500AFFFF710FF0246044BA1
:100730005B6903F0010322FA03F3184680BD00BF92
:100740000046005080B483B000AF78600649064B85
:10075000DB6823F480327B681343CB600C37BD46E3
:100760005DF8047B704700BF0046005080B483B042
:1007700000AF78600649064B9B6923F480327B68A2
:1007800013438B610C37BD465DF8047B704700BF97
:100790000046005080B483B000AF78600649064B35
:1007A0005B6A23F440327B6813434B620C37BD46CF
:1007B0005DF8047B704700BF0046005080B483B0F2
:1007C00000AF0346FB80FB88002B08D10A4A0A4B86
:1007D000DB6823F4807323F00103D36007E0064A4B
:1007E000054BDB6843F4807343F00103D3600C379F
:1007F000BD465DF8047B70471047005080B483B05D
:1008000000AF0346FB7100BF094BD3F8C43003F0BF
:100810000803002BF8D10749064BDB6823F04002A0
:10082000FB791343CB600C37BD465DF8047B704702
:10083000004000500043005080B483B000AF034636
:10084000FB7100BF094BD3F8C43003F00803002B41
:10085000F8D10749064BDB6823F08002FB7913438C
:10086000CB600C37BD465DF8047B704700400050FC
:100870000043005080B483B000AF78600649064B57
:10088000DB6823F0FF027B68013B1343CB600C372E
:10089000BD465DF8047B70470046005080B483B0CD
:1008A00000AF78600649064B1B6A23F001027B68A3
:1008B000013B13430B620C37BD465DF8047B704768
:1008C0000046005080B483B000AF78600649064B04
:1008D0001B6923F001027B68013B13430B610C375A
:1008E000BD465DF8047B70470046005080B483B07D
:1008F00000AF78600649064B5B6923F001027B6814
:10090000013B13434B610C37BD465DF8047B7047D8
:100910000046005080B483B000AF78600649064BB3
:100920009B6923F007027B68013B13438B610C3703
:10093000BD465DF8047B70470046005080B483B02C
:1009400000AF78600649064BDB6923F03F027B6805
:10095000013B1343CB610C37BD465DF8047B704708
:100960000046005080B483B000AF78600649064B63
:100970005B6A23F0FF027B68013B13434B620C3739
:10098000BD465DF8047B70470046005080B483B0DC
:1009900000AF78600649064B9B6B23F003027B682F
:1009A000013B13438B630C37BD465DF8047B7047F6
:1009B0000046005080B483B000AF0346FB71044A88
:1009C000FB7953600C37BD465DF8047B704700BF70
:1009D0000046005080B485B000AF78607B681B0F84
:1009E000FB607B6823F07043BB60FA6813465B00D2
:1009F00013449B001A46044B1344BA681A60143718
:100A0000BD465DF8047B70474846005080B400AF97
:100A1000054A054B5B6923F4803323F002035361DD
:100A2000BD465DF8047B70471047005080B483B02A
:100A300000AF78603960284A274B5B6943F00103B7
:100A4000536100BF244B1B6903F00103002BF9D055
:100A5000214A214B5B6943F0100353611E493B68F7
:100A6000013B1A027B68013B1B0613434B611A4A88
:100A7000194B5B6943F040035361174A164B5B699E
:100A800023F010035361144A134B5B6943F4802332
:100A9000536100BF104B1B6903F00403002BF9D016
:100AA0000D4A0D4B5B6923F00103536100BF0A4BF4
:100AB0001B6903F00103002BF9D1074A064B5B6960
:100AC00023F040035361054B0822DA600C37BD4622
:100AD0005DF8047B704700BF104700506041005034
:100AE00080B582B000AF0346FB710F4A0E4B5B68C6
:100AF00043F480135360FB79012B0ED10A4A0A4B51
:100B00005B6823F4801353606420FFF737FD064AC7
:100B1000054B5B6843F4002353606420FFF72EFD10
:100B20000837BD4680BD00BF1047005080B400AFFD
:100B3000124B1B6803F00103002B09D10F4B01225C
:100B40005A6000BF0D4B1B6803F00103002BF9D066
:100B50000B4B1B6803F40073002B0AD0084B4FF4B7
:100B600000729A6000BF064B1B6803F40073002BF1
:100B7000F9D1BD465DF8047B704700BF00420050CC
:100B80000044005080B400AF064B1B6803F008031C
:100B9000002B0CBF01230023DBB21846BD465DF8D5
:100BA000047B70470043005080B500AF4FF4000055
:100BB000FFF712FD174A174BDB6923F03003D361AF
:100BC00000BFFFF7FDFC034603F40003002BF8D041
:100BD0004FF40030FFF700FD0E4B08225A6000BFB3
:100BE000FFF7EEFC034603F40033002BF8D04FF47C
:100BF0000020FFF7F1FC074A064BDB6843F00803CF
:100C0000D36000BFFFF7DCFC034603F40023002B96
:100C1000F8D080BD00430050B0B500AF0F4A0F4B75
:100C20005B6823F4803353600D4D0D4B5B6823F4F8
:100C3000702424F0300401F04BF90246094BA3FB69
:100C400002231B0D013B1B0423436B60034A034B30
:100C50005B6823F400335360B0BD00BF1047005001
:100C6000004700506BCA5F6B80B400AF074B1B6836
:100C700003F46073B3F5607F0CBF01230023DBB284
:100C80001846BD465DF8047B704700BF1047005012
:100C900080B400AF054A054B5B6823F4803323F032
:100CA00002035360BD465DF8047B70471047005057
:100CB00080B400AF054A054B5B6843F4803343F0D2
:100CC00002035360BD465DF8047B70471047005037
:100CD00080B586B000AFBA607B600346FB810B46EF
:100CE0007B73FB891846FFF769FD7B7B012B40F086
:100CF0008B80FB89002B09D101F0EAF80246544BA6
:100D0000A3FB02239B0C9B057B6102E04FF0C063B9
:100D10007B617B697A6802FB03F2BB68B2FBF3F389
:100D20007B617B694B4AA2FB03231B099B0D3B6143
:100D3000494A494B5B6843F00103536000BF464B8F
:100D40001B6803F00103002BF9D0434A424B5B6858
:100D500043F01003536040493F4B9A683F4B1340A8
:100D60007A68013A12021A433B69013B1B041A4399
:100D7000BB68013B1B0613438B60374A364B5B68ED
:100D800043F040035360344A334B5B6823F0100355
:100D90005360314A304B5B6843F48023536000BF9B
:100DA0002D4B1B6803F00403002BF9D02A4A2A4B71
:100DB0005B6823F00103536000BF274B1B6803F0FF
:100DC0000103002BF9D17B69254AA2FB03235B09B0
:100DD0009B0D3B613A6A3B699A4202D2386900F046
:100DE00045F87B695B081F4AA2FB03235B099B0D47
:100DF0003B613A6A3B699A4202D2386900F036F8A0
:100E0000386A00F033F81CE01349134B9B6823F059
:100E10007F023B6A013B13438B6000BF0E4B1B6894
:100E200003F01003002BF9D00B4A0B4B5B6843F027
:100E30000103536000BF084B1B6803F00103002B44
:100E4000F9D0094B0522DA601837BD4680BD00BFD6
:100E500083DE1B43ABAAAAAA10470050FF8080F094
:100E600089888888B7600BB66041005080B582B031
:100E700000AF78600B490B4B9B6823F4FE027B6844
:100E8000013B1B0413438B6000BF064B1B6803F040
:100E90002003002BF9D03220FFF770FB0837BD4646
:100EA00080BD00BF1047005080B483B000AF7860B1
:100EB0007B68D3F8C43103F44073002B0CBF0123CB
:100EC0000023DBB218460C37BD465DF8047B704743
:100ED00080B483B000AF7860084611461A460346D6
:100EE000FB700B46BB7013467B70FA78BB781B0413
:100EF00003F47F031A437B781B061A437B68C3F80D
:100F0000C4210C37BD465DF8047B704780B483B0C4
:100F100000AF78607B681B6843F040027B681A6012
:100F20000C37BD465DF8047B704700BF80B483B0CA
:100F300000AF78607B681B6823F040027B681A6012
:100F40000C37BD465DF8047B704700BF80B483B0AA
:100F500000AF786039603A687B68934238BF1346C7
:100F600018460C37BD465DF8047B704780B483B0EB
:100F700000AF786039603A687B68934228BF1346B7
:100F800018460C37BD465DF8047B704780B588B0C5
:100F900000AF786039603B681B683A685268B3FB01
:100FA000F2F102FB01F29B1A002B40F0908000232B
:100FB000FB610023BB613B681A683B685B68B2FB5E
:100FC000F3F3BB6019237B6100233B610023FB60CB
:100FD0004BE0BB687A69B3FBF2F2796901FB02F27C
:100FE0009B1A002B3ED10023BB61BA687B69B2FB20
:100FF000F3F3FB61FB69002B34D0FB69B3F5007F91
:1010000030D8FB693F2B0AD9FB6903F00703002B9B
:1010100003D07B69013B7B6127E00123BB617B69D6
:10102000013B3A68128902FB03F32B4AA2FB03231C
:101030005B0B3B617A693B69D31A013BFB603B69FF
:10104000022B0FD93B690F2B0CD8FB68012B09D958
:10105000FB68062B06D83B685B891A46FB689A42F8
:1010600000D805E07B69013B7B617B69072BB0D829
:101070007B69072B2BD97868FFF748FFFB68013B9A
:101080001B0303F4E0423B685B89013B9B01DBB23D
:101090001A433B69013B1B0203F4706342EA0301FC
:1010A000BA6913465B0013441A46FB69D340013BFF
:1010B00003F03F0341EA0302BB69DB039BB21A431F
:1010C0007B681A617868FFF731FF002300E0012395
:1010D00018462037BD4680BD5917B7D180B582B0BC
:1010E00000AF78600B46FB701346BB7000BF78689A
:1010F000FFF7DAFE034683F00103DBB2002BF6D1E3
:10110000FB780133DBB2BA7878680221FFF7E0FEA2
:101110000837BD4680BD00BF80B582B000AF7860A3
:101120000A48FFF757FC0948FFF7E0FA7B681B689D
:1011300023F001027B681A6000BF7B681B6803F024
:101140000203002BF9D10837BD4680BD1000001006
:1011500080B483B000AF78600B46FB707B68D3F837
:10116000C83123F00F02FB781A437B68C3F8C8210B
:101170000C37BD465DF8047B704700BF80B483B078
:1011800000AF78607B68D3F8C831DBB203F00F039F
:10119000DBB218460C37BD465DF8047B704700BFD4
:1011A00080B584B000AF78600023FB607868FFF7FB
:1011B000E5FF0346012B02D0022B04D007E0FFF726
:1011C000B1FAF86003E000F083FEF86000BFFB684E
:1011D00018461037BD4680BD80B588B000AFF860B6
:1011E0000B467A60FB72F868FFF796FFFB7AF868A7
:1011F0001946FFF7ADFFF868FFF7D2FFF861FA690B
:101200007B68B2FBF3F3C3F5806300201946FFF758
:101210009DFE0346184640F2FF31FFF7A7FEB86176
:10122000BB69C3F58063FA69B2FBF3F37B61FB68CA
:10123000DB6823F4434323F0FF03FA68D360FB68C1
:10124000DA68BB69134343F48042FB68DA607B6968
:1012500018462037BD4680BD80B586B000AF7860A7
:101260007B681B6803F13843A3F5A8335B097B61F6
:101270007B695B095A037B6903F01F031B0213435D
:101280003B617B681B687A681268926822F47F422F
:101290009A607B681B687A68126891683A690A43A9
:1012A0009A607B68DB7903F02003DBB2002B07D068
:1012B0007B68DB7903F02003DBB2002B00D160E018
:1012C0007B681B7E002B04D07B681B7E012B00D02B
:1012D00057E07B681B682022DA617B68DB7903F0CA
:1012E0002003DBB2002B28D17B685B68FB60FB68C6
:1012F00003F06043FB607B685B68C3F31C039B04E3
:101300001A46FB681343FB607B681B68FA689A61A6
:101310007B689B68FB60FB6803F06043FB607B6855
:101320009B68C3F31C039B041A46FB681343FB60D2
:101330007B681B68FA68DA6009E07B681B687A687A
:1013400052689A617B681B687A689268DA607B6889
:101350001B7E012B0CD1786800F01AF87B681B68A3
:101360004FF00062DA617B681B68074ADA6108E0C7
:101370007B681B684FF40062DA617B681B68034A74
:10138000DA611837BD4680BDC00020064006A000C7
:1013900080B485B000AF78600323FB737B681B7E4D
:1013A000012B22D17B681B682022DA617B681B68D5
:1013B0007A681268126822F070617A68127B1206ED
:1013C00002F070620A431A607B681B687A681269CF
:1013D0001A617B681B687A6852695A617B681B686E
:1013E000064ADA610023FB7301E00323FB73FB7BF6
:1013F00018461437BD465DF8047B7047400028004E
:1014000080B487B000AF78600123FB757B681B68F0
:10141000DB6903F020035B093B617B681B68DB69C8
:1014200003F480731B0AFB603B69002B02D1042389
:10143000FB750CE0FB68012B02D10223FB7506E073
:101440007B681B684FF0E062DA610023FB75FB7D6F
:1014500018461C37BD465DF8047B704780B483B0E6
:1014600000AF786039603B68B3F5800F06D07B68C9
:101470001A683B681A437B681A6005E07B689A69C2
:101480003B681A437B689A610C37BD465DF8047B64
:10149000704700BF80B483B000AF78607B684FF4C2
:1014A0008072DA600C37BD465DF8047B704700BF80
:1014B00080B582B000AF78607B68104A934203D158
:1014C0000420FFF713F916E07B680D4A934203D11D
:1014D0000820FFF70BF90EE07B680A4A934203D11C
:1014E0001020FFF703F906E07B68074A934202D118
:1014F0000648FFF7FBF80837BD4680BD00C0004036
:101500000000014000400140004000480100001080
:1015100080B582B000AF78607B68104A934203D1F7
:101520000420FFF757FA16E07B680D4A934203D177
:101530000820FFF74FFA0EE07B680A4A934203D176
:101540001020FFF747FA06E07B68074A934202D172
:101550000648FFF73FFA0837BD4680BD00C000408F
:101560000000014000400140004000480100001020
:1015700080B582B000AF78601020FFF71BFA786862
:10158000FFF7C6FF7868FFF793FF0837BD4680BDB9
:1015900080B584B000AF78600B46FB707868FFF7C9
:1015A000E7FF7868FFF776FF7B681B68FB60FB68E6
:1015B00023F44043FB60FB789B03FA681343FB6012
:1015C0007B68FA681A601037BD4680BD80B483B06E
:1015D00000AF786039603B681A687B685A613B6885
:1015E0005B79C3F30003DBB21A057B685A603B6882
:1015F0001B79C3F30303DBB21A467B685A623B686C
:101600001B79C3F30313DBB21A467B68DA620C372B
:10161000BD465DF8047B704780B485B000AF78604C
:101620000B46FB707B685B68FB60FB6823F0300354
:10163000FB60FB781B01FA681343FB607B68FA6868
:101640005A601437BD465DF8047B704780B485B09E
:1016500000AF78600B46FB707B685B68FB60FB68E3
:1016600023F0C003FB60FB789B01FA681343FB6027
:101670007B68FA685A601437BD465DF8047B704792
:1016800080B489B000AFF8600B467A60FB72FB7AD9
:10169000013BFB77FB681B68BB61FB7F5B00DBB238
:1016A0001033FB75FB7D032202FA03F3DB43BA69B7
:1016B0001340BB617B685B781A46FB7D02FA03F33B
:1016C000BA691343BB61FB7F1633FB75FB7D0122B7
:1016D00002FA03F3DB43BA691340BB617B689B7872
:1016E0001A46FB7D02FA03F3BA691343BB61FB7F21
:1016F0005B00DBB21933FB75FB7D032202FA03F3B7
:10170000DB43BA691340BB617B68DB781A46FB7D1B
:1017100002FA03F3BA691343BB61FB7F9B00FB75BD
:10172000FB7D0F2202FA03F3DB43BA691340BB616E
:101730007B681B781A46FB7D02FA03F3BA691343F0
:10174000BB61FB68BA691A602437BD465DF8047B4B
:10175000704700BF80B483B000AF78600B46FB7069
:101760001346BB707B685A6FFB785B0019460323F6
:101770008B40DB431A407B685A677B685A6FBB78A3
:10178000F97849008B401A437B685A670C37BD468D
:101790005DF8047B704700BF80B485B000AF78600F
:1017A00039603B78C3F30203DBB21A467B88C3F38C
:1017B00009039BB21B041343FB607B68FA68C3F800
:1017C000F021FB78C3F30013DBB21A07FB78C3F3F5
:1017D0008103DBB29B061A43FB78C3F34013DBB2F1
:1017E0005B071343FB60FB78C3F38013DBB29B07FB
:1017F000FA681343FB607B68D3F8F021FB6813435E
:1018000043F000427B68C3F8F0211437BD465DF811
:10181000047B704780B483B000AF78607B68D3F8F6
:10182000843043F080627B68C3F884200C37BD4667
:101830005DF8047B704700BF80B483B000AF786070
:101840007B68D3F8843023F080627B68C3F88420FF
:101850000C37BD465DF8047B704700BF80B500AF14
:101860000120FFF7B7F80120FEF740FF80BD00BF61
:1018700080B582B000AF78603960FFF7EFFF3B685A
:101880005A697B681A603B685B6843F400427B6876
:10189000C3F880203B689A687B68C3F8A0203B6847
:1018A000DA687B68C3F8A4203B681A697B68C3F8D0
:1018B00080223B681A687B68C3F8B8200837BD46A9
:1018C00080BD00BF80B485B000AFF860B9603B60F8
:1018D0001346FB71FB79002B09D1BA6840F21F73E4
:1018E0001340FA683968283142F8213007E0BA68B5
:1018F000054B1340FA683968283142F82130143713
:10190000BD465DF8047B704700001F0780B485B0BA
:1019100000AF78607B68D3F8803043F000427B688A
:10192000C3F880200023FB7317E0FB7B0F4A52F8BB
:101930002330BB60BB68D3F8803003F44033002B06
:1019400008D000E000BFBB68D3F8803003F08053BC
:10195000002BF7D1FB7B0133FB73FB7B032BE4D91B
:101960001437BD465DF8047B704700BFFC2D0008AE
:1019700080B485B000AF78600B46FB70FB78032B1A
:1019800003D9FB78043BFB6001E0FB78FB607B68DC
:10199000D3F8403123F00F027B68C3F840217B6805
:1019A000D3F84021FB681A437B68C3F84021143701
:1019B000BD465DF8047B704780B582B000AF7860AB
:1019C00039603B68786859680022002300F028F8E5
:1019D0003B68786859680122002300F021F83B68D1
:1019E000786899680022012300F01AF83B6878684B
:1019F00099680122012300F013F83B681A697B689B
:101A0000C3F880203B68DA687B68C3F8B8203B687D
:101A100078681968FFF7C0FE0837BD4680BD00BF73
:101A200080B48DB000AFF860B9603B601346FB71C5
:101A3000FB79002B13D10823FB624FF4E0637B6238
:101A40000023BB621F233B623B7AC3F30403DBB278
:101A5000FB617B7AC3F30203DBB2FB7613E018234E
:101A6000FB624FF0E0637B621023BB624FF4F8131C
:101A70003B62BB7AC3F30403DBB2FB61FB7AC3F3C3
:101A80000203DBB2FB76FB683A68283253F8223057
:101A90007B617B6ADB437A6913407B61FA7EFB6A78
:101AA00002FA03F37A6913437B613B6ADB437A6989
:101AB00013407B61BB6AFA6902FA03F37A69134344
:101AC0007B61FB683A682832796943F82210343721
:101AD000BD465DF8047B704780B485B000AF786088
:101AE0000B46FB707B68D3F88030FB60FB6823F00B
:101AF0000303FB60FB78FA681343FB607B68FA68BA
:101B0000C3F880201437BD465DF8047B704700BFE2
:101B100080B586B000AF786039600023FB7509E0BE
:101B2000FB7D394A52F823301846FFF785FEFB7DCE
:101B30000133FB75FB7D032BF2D900233B613B682E
:101B40001B7803F00303DBB2002B02D04FF40063D9
:101B50003B610023FB7521E0FB7D2B4A52F82330CB
:101B6000D3F88430FB60FB6823F44073FB603B6870
:101B70001B78C3F38103DBB21B02FA681343FB60DB
:101B8000FA683B691343FB60FB7D1F4A52F8233020
:101B9000FA68C3F88420FB7D0133FB75FB7D032BC2
:101BA000DAD93B685B6843F4000343F400437A6886
:101BB000C2F800323B689B6843F001027B68C3F8BF
:101BC00004223B681B7803F00303DBB2022B07D12E
:101BD0007B68D3F8043243F480327B68C3F8042274
:101BE0000023FB7509E0FB7D074A52F823301846B5
:101BF000FFF710FEFB7D0133FB75FB7D032BF2D954
:101C00001837BD4680BD00BFFC2D000880B489B0E8
:101C100000AFF860B9607A607B681B7BBB61FB68D2
:101C2000D3F888307B61BB68012202FA03F3DB43FF
:101C30007A6913407B61BB68BA6902FA03F37A6977
:101C400013437B61FB687A69C3F888207B685B7B00
:101C50005BB2002B29DB0023FB61BB68012B0AD19F
:101C60000823FB61FB68D3F8B03023F4F852FB681B
:101C7000C3F8B0200CE0BB68002B09D10023FB6146
:101C8000FB68D3F8B03023F01F02FB68C3F8B02024
:101C9000FB68D3F8B0307A68527B51B2FA6901FA26
:101CA00002F21A43FB68C3F8B020FB68D3F8C820DF
:101CB0007B685B681A43FB68C3F8C820FB68D3F8ED
:101CC000D0207B689B681A43FB68C3F8D0207B68F0
:101CD0001968FB68BA68803243F822102437BD4681
:101CE0005DF8047B704700BF80B400AFBD465DF86F
:101CF000047B704780B483B000AF78607B684FF49A
:101D00008072DA600C37BD465DF8047B704700BF17
:101D100080B582B000AF78607B685B7B83F00103A5
:101D2000DBB2002B0FD07B689A687B681B7B104668
:101D30001946FFF72DFC7B689B681846FFF7DAFF12
:101D40007B6801225A73002318460837BD4680BDC0
:101D500080B584B000AF78600023FB737B685B7A4A
:101D600083F00103DBB2002B0FD07B6859687B68DE
:101D70001A7A7B681B68084611461A46FFF72CFA48
:101D80007B6801225A720023FB73FB7B18461037D5
:101D9000BD4680BD80B483B000AF786039607B6899
:101DA000D3F880203B681033194601238B401A4337
:101DB0007B68C3F880200C37BD465DF8047B704714
:101DC00080B584B000AF78607B681B7E022B49D160
:101DD0007B685A697B681B6910461946FFF748FD06
:101DE0000023FB602FE07B68FA6853F82230196803
:101DF0007B68FA6853F822305B6808461946FFF79B
:101E0000DBFD7B68FA6853F822301B681846032113
:101E1000FFF762FE7B68FA6853F822301B7A83F082
:101E20000103DBB2002B05D07B685B691846F968BB
:101E3000FFF7B0FF7B68FA6853F8223000225A722D
:101E4000FB680133FB60FB68032BCCD97B685B7EAE
:101E5000002B04D07B685B691846FFF757FD7B6851
:101E600000221A767B681B7E18461037BD4680BD5F
:101E700080B582B000AF78607B6819687B681A7C97
:101E80007B680433084611461A46FEF7B9FA7B68A8
:101E900019687B681A7C7B685B7C084611461A4689
:101EA000FFF758FC002318460837BD4680BD00BF29
:101EB00080B485B000AF78600023FB737B6801229B
:101EC0001A70FB7B18461437BD465DF8047B7047DB
:101ED00080B400AF024B1846BD465DF8047B7047E6
:101EE000001BB70080B483B000AF78600649064B92
:101EF0009B6B23F480327B6813438B630C37BD46A6
:101F00005DF8047B704700BF00460050B0B586B056
:101F100000AF164B3C1D1D460FCD0FC42B68236030
:101F20003B1D1846FEF766FB0020FEF767FC4FF4EA
:101F30008030FEF71BFC0620FEF7ECFCFEF766FD8A
:101F400003206421FEF772FD0020FFF7CBFF022083
:101F5000FEF71CFD0020FEF71DFC0120FEF702FD30
:101F60000120FEF7EBFC1837BD46B0BD882E0008F7
:101F700080B483B000AF78600B46FB70FB78012221
:101F80009A407B68DA600C37BD465DF8047B704789
:101F900080B483B000AF78607B680122DA600C37D0
:101FA000BD465DF8047B704780B483B000AF7860B5
:101FB0007B6802221A610C37BD465DF8047B7047CE
:101FC00080B483B000AF78600B467B807A887B68F2
:101FD0005A630C37BD465DF8047B704780B483B00C
:101FE00000AF78600B467B807A887B68DA630C37B9
:101FF000BD465DF8047B704780B483B000AF786065
:1020000039607B683A681A610C37BD465DF8047B1D
:10201000704700BF80B584B000AF78600023FB73C9
:102020007B6893F8313083F00103DBB2002B30D0B2
:102030007B6893F82D30002B0CD17B685B691846C8
:10204000FFF766FE0346FB73FB7B002B02D178682B
:1020500000F0BCF87B685B6A002B0CD07B685B6A85
:1020600019687B685B6A1A797B689B6A0846114627
:102070001A46FEF7C5F97B68012283F831207B6898
:1020800093F82F30002B04D0786800F007F803464F
:10209000FB73FB7B18461037BD4680BD80B584B00E
:1020A00000AF78607B6893F83130002B1ED07B68DE
:1020B00093F82D30002B16D17B689B695B6F7B6892
:1020C0009B699B6F7B689B69DB6F7B689B69D3F81F
:1020D00080307B689B691846FFF766FF7B689B69C9
:1020E0001846FFF755FF0023FB7301E00123FB7344
:1020F000FB7B18461037BD4680BD00BF80B586B05B
:1021000000AF786039600023FB750023BB757B68E6
:1021100093F83130002B52D07B6893F82D30002B90
:102120004FD17B6893F82E30002B04D07B6893F856
:102130002E30032B33D100233B610023FB607B68EF
:102140009A6907F11003104600211A4600F0FAF8C8
:102150000346FB757B689A6907F10C031046012161
:102160001A4600F0EFF80346BB7507F110037868D4
:102170001946012200F082F807F10C03786819462D
:10218000002200F07BF83A69FB681A443B681A6049
:10219000BB7D022B02D10223FB750FE00EE07B68B2
:1021A0009B69184601213A6800F0CCF80346FB759C
:1021B00078683968002200F061F802E001E001234C
:1021C000FB75FB7D18461837BD4680BD80B582B0D3
:1021D00000AF78607B689A697B68DB6910461946B6
:1021E000FFF7F4F9786800F02BF87B689A697B6850
:1021F000DB68104601211A46FFF742FA7B689A69AC
:102200007B681B69104602211A46FFF739FA7B6882
:102210009B6918460121FFF7FFF97B689B69184607
:102220000221FFF713FA7B685B699A687B6893F871
:102230002C3010461946FFF79BFE0837BD4680BD7F
:1022400080B582B000AF78607B689B6918464FF616
:10225000FF71FFF7B5FE7B689B6918460021FFF709
:10226000BDFE7B685B699A687B689B68104619466F
:10227000FFF7C2FE0837BD4680BD00BF80B48DB0F9
:1022800000AFF860B9601346FB710023FB620023C6
:1022900087F82B30BB681B689BB27B62BB681B68EE
:1022A0001B0C03F00F03BB61FB79002B02D07B6A90
:1022B00001337B62FB6893F82D30002B11D1FB6852
:1022C000DB691B79C3F30303DBB2FB62FB68DB69E9
:1022D0009B7803F00103DBB2002B02D0012387F8C7
:1022E0002B3097F82B30002B23D000233B620023A8
:1022F000FB61BA69FB6AD31A7B617B693B620AE0C6
:10230000FB695B00FB61FB6903F57F43FF33FB6106
:102310003B6A013B3B623B6A002BF1DC7B697A6ADA
:1023200002FA03F3FA691344FB61BB68FA691A60A5
:1023300002E0BB687A6A1A603437BD465DF8047BF8
:10234000704700BF80B489B000AFF8600B467A6078
:10235000FB720223FB77FB7A012B1CD1FB68D3F8BD
:1023600080207B681A607B681B6803F48013002B55
:1023700002D00023FB7728E0FB68DB6FBB61BB6901
:1023800003F48013002B05D00023FB77BA697B6828
:102390001A601AE019E0FB689A6F7B681A607B6824
:1023A0001B6803F48013002B02D00023FB770CE0A2
:1023B000FB685B6F7B617B6903F48013002B04D0A7
:1023C0000023FB777A697B681A60FB7F1846243705
:1023D000BD465DF8047B704780B485B000AFF860FF
:1023E0000B467A60FB72FB689A68FB7A072101FA58
:1023F00003F3DB431A40FB7A796801FA03F31A43CB
:10240000FB689A601437BD465DF8047B704700BFD7
:1024100080B483B000AF78600B46FB707B68DB68EC
:1024200023F00702FB7803F007031A437B68DA60A6
:102430000C37BD465DF8047B704700BF80B483B0A5
:1024400000AF78607B68DB6843F480727B68DA6099
:102450000C37BD465DF8047B704700BF80B483B085
:1024600000AF78607B681B6843F040027B681A60AD
:102470000C37BD465DF8047B704700BF80B483B065
:1024800000AF78607B681B6823F040027B681A60AD
:102490000C37BD465DF8047B704700BF80B483B045
:1024A00000AF78607B681B6843F001027B681A60AC
:1024B0000C37BD465DF8047B704700BF80B483B025
:1024C00000AF78607B681B6823F001027B681A60AC
:1024D0000C37BD465DF8047B704700BF80B483B005
:1024E00000AF78607B681B6823F080027B681A600D
:1024F0000C37BD465DF8047B704700BF80B485B0E3
:1025000000AFF8600B467A60FB72FB681B68FA68E4
:1025100012689168FA7A072000FA02F2D243114059
:10252000FA7A786800FA02F20A439A601437BD46D4
:102530005DF8047B704700BF80B483B000AF786063
:1025400039607B681B687A68126811683A680A43C8
:102550001A600C37BD465DF8047B704780B582B0C9
:1025600000AF78607B681B6818464FF40031FFF7B6
:10257000E3FF0837BD4680BD80B582B000AF78600C
:102580007B681B6818464FF48031FFF7D5FF08378A
:10259000BD4680BD80B584B000AF78600023FB608D
:1025A000786800F031F87B6893F8A430002B03D0F2
:1025B000FB6843F00203FB607B6893F8A330002BB9
:1025C00003D0FB6843F00403FB607B6893F8A530FD
:1025D000002B03D0FB6843F00803FB607B685B685B
:1025E0001846F968FEF73AFF7B6893F8A630002B8F
:1025F00006D07B685B6818464FF48001FEF72EFF1B
:102600001037BD4680BD00BF80B582B000AF786096
:102610007B685A687B68D3F88C301B7810460021A1
:102620001A46FFF7D9FE7B685A687B68D3F88C306E
:102630005B78104604211A46FFF7CEFE7B685A6885
:102640007B68D3F88C309B78104608211A46FFF738
:10265000C3FE7B685A687B68D3F88C30DB78104601
:102660000C211A46FFF7B8FE0837BD4680BD00BFF3
:1026700080B582B000AF78607B681B681846FEF7B3
:10268000EBFD7B68DB79002B0BD07B681A687B68DD
:102690005B79104604211A46FFF730FF7868FFF790
:1026A0005DFF7B681B7A002B0BD07B681A687B6808
:1026B0009B79104600211A46FFF720FF7868FFF744
:1026C0005BFF0837BD4680BD80B584B000AF786041
:1026D0000023FB737B681B681846FEF791FE0346D8
:1026E000FB73FB7B18461037BD4680BD80B584B0B8
:1026F00000AF786039600023FB733B68BB607B6888
:102700001B68BA6812681A617B681B68BA685268ED
:102710005A617B681B681846FEF73AFE0346FB7356
:10272000FB7B18461037BD4680BD00BF80B586B024
:1027300000AF78600023FB757B68D3F89030FB60B6
:102740007B681B681846FFF703FB0346FB75FB7DA0
:10275000002B40F087807B685A687B689B68104636
:102760001946FEF713FC0346002B78D17B685B68A3
:102770001846FFF773FE7B685B681846FFF78EFE0E
:102780007B685B681846FFF7A9FE7B6893F8A73063
:10279000002B05D07B685B681846FFF74FFE18E0FA
:1027A0007B68D3F8983019687B68D3F898301A7929
:1027B0007B68D3F89C30084611461A46FDF720FE88
:1027C0007B685A687B6893F8A03010461946FFF77B
:1027D0001FFE7868FFF7DEFE00233B6119E07A6890
:1027E0003B6902339B0013445B68BB607B681B68DA
:1027F00059687B6893F8A120BB681B79084611468D
:102800001A46FEF76BFCB868FFF732FF3B690133ED
:102810003B617B6893F8A2301A463B699A42DED846
:102820007B685B681846FFF729FE7B685B68184683
:10283000FFF744FE7B6893F8A73083F00103DBB217
:10284000002B11D0FB681968FB681A797B68D3F8F4
:102850009430084611461A46FDF7D2FD04E00123E4
:10286000FB7501E00123FB75FB7D18461837BD465B
:1028700080BD00BF80B400AF044BDB6803F4E063AD
:102880001B0A1846BD465DF8047B704700ED00E06A
:1028900080B483B000AF0346FB7197F90730002B7B
:1028A0000BDB084997F907305B09FA7902F01F0240
:1028B000012000FA02F241F823200C37BD465DF8F2
:1028C000047B704700E100E080B483B000AF0346B2
:1028D0003960FB7197F90730002B0ADB0D4997F936
:1028E00007303A68D2B29200D2B20B4483F8002388
:1028F0000AE00949FB7903F00F03043B3A68D2B2BE
:102900009200D2B20B441A760C37BD465DF8047BB8
:10291000704700BF00E100E000ED00E080B489B046
:1029200000AFF860B9607A60FB6803F00703FB61F1
:10293000FB69C3F10703062B28BF0623BB61FB69B4
:102940000633062B02D9FB69013B00E000237B61C3
:10295000BB69012202FA03F35A1EBB681A407B6965
:102960009A407B69012101FA03F3591E7B680B40F1
:10297000134318462437BD465DF8047B704700BFFB
:1029800080B483B000AF78607B68D3F8043243F43E
:1029900000727B68C3F804220C37BD465DF8047BE7
:1029A000704700BF80B485B000AFF860B9607A604E
:1029B000FB68BA68603253F822207B68012101FA73
:1029C00003F342EA0301FB68BA68603243F822105D
:1029D0001437BD465DF8047B704700BF80B485B0F6
:1029E00000AFF860B9607A607B681968FB68BA6804
:1029F000A03243F822101437BD465DF8047B7047BF
:102A000080B483B000AF786039607B683A68C032C8
:102A100053F822309BB218460C37BD465DF8047B54
:102A2000704700BF90B585B000AF78607B681B7EB3
:102A3000022B40F099807B68DB681846FFF7C0F9ED
:102A40000346BB737B68DB685A697B689B681046EA
:102A5000196800220023FEF735FF7B68DB685A699E
:102A60007B685B6810461946FFF752F80023FB733A
:102A70002EE07B681B68FA7B53F82230BB60BB6892
:102A80009A68BB685B7B1946BB681B6810461A4690
:102A9000FFF7BCF8BB689A68BB681B689B78C3F3F8
:102AA0000303DBB21946BB685B6810461A46FFF7A2
:102AB00095FF7B68DB685A69BB681B7B1946BB685E
:102AC0005B7B10461A46FFF76DFFFB7B0133FB7300
:102AD000FB7B002BCDD07B685B681B7A03F008037F
:102AE000DBB2002B2CD07B681B69002B28D07B68C5
:102AF0001B691B68DCB2FFF7BDFE01467B681B69E2
:102B00005A687B681B699B68084611461A46FFF79E
:102B100005FF024663B218461146FFF7D5FE7B68F3
:102B2000DB685A697B685B7E10461946FEF720FF1A
:102B30007B681B691B68DBB25BB21846FFF7A8FE17
:102B40007B685B69002B02D07B685B6998477B6878
:102B50009B7E002B05D07B68DB685B691846FFF71E
:102B60000FFF7B68BA7B1A767B681B7E184614378A
:102B7000BD4690BD80B584B000AF78607B689A6830
:102B80007B681B689B78C3F30303DBB210461946CE
:102B9000FFF736FF0346FB81FB8918461037BD4619
:102BA00080BD00BF80B582B000AF0023FB71154827
:102BB000FFF77EF90346FB71FB79002B04D1124825
:102BC000FFF730FF0346FB71FB79002B04D10F4860
:102BD000FFF74EF90346FB71FB79002B04D10C483B
:102BE000FFF718FA0346FB71FB79002B04D1094863
:102BF000FFF79CFD0346FB71FB7918460837BD467D
:102C000080BD00BF0089FE1FE488FE1F742E0008EF
:102C10006888FE1F042F000880B483B000AF78607E
:102C20000B46FB70FB7801229A407B685A600C3798
:102C3000BD465DF8047B704780B483B000AF786018
:102C40000B46FB70FB784FF480329A407B685A60E9
:102C50000C37BD465DF8047B704700BF80B582B07D
:102C600000AF78607B681A687B681B7C1046194649
:102C7000FFF7D2FF0837BD4680BD00BF80B582B0E8
:102C800000AF78607B681A687B681B7C1046194629
:102C9000FFF7D2FF0837BD4680BD00BF80B584B0C6
:102CA00000AFFFF77FFF0346FB71FB79002B00D0DD
:102CB000FEE73348FFF7F2F93248FFF75BFF0346C0
:102CC0001A46314B1A803148FFF7C8FF0023FB60DA
:102CD00002E0FB680133FB60FB68B3F5FA7FF8D3D1
:102CE0002A48FFF7CBFF26482949FFF707FA034692
:102CF0001A46284B1A70274B1B78002B13D1244BF4
:102D00001B684EF65F2293420DD8214B1B689B092E
:102D1000214A1360204B1B68204AA2FB03235B0956
:102D20009AB21F4B1A80184B1B889BB2DAB21D4B0C
:102D30001A70154B1B889BB21B0A9BB2DAB2194B57
:102D40005A70174B1B88DAB2164B9A70144B1B88BB
:102D50001B0A9BB2DAB2134BDA7013481149FFF722
:102D6000C5FC1148FFF7B0FC0023BB6002E0BB6864
:102D70000133BB60BB680D4A9342F8D99CE700BFA2
:102D80006888FE1FD088FE1F1089FE1F742E000861
:102D90001489FE1F1E89FE1F1889FE1F09CB3D8D59
:102DA0001C89FE1F0889FE1FF82E0008FF340C0046
:102DB00070B50E4B0E4CE41AA41000251E46A54219
:102DC00004D056F8253098470135F8E7FEF78CFF18
:102DD000084C094BE41AA41000251E46A54204D055
:102DE00056F8253098470135F8E770BD0089FE1F79
:102DF0000089FE1F0089FE1F0089FE1F004400405D
:102E000000480040004C004000500040000000001E
:102E100000000000000000000000000000000000B2
:102E200000000000000000000000000000000000A2
:102E30000000000000000000000000000000000092
:102E40000000000000000000000000000000000082
:102E50000000000000000000000000000000000072
:102E6000040000000000000000000000000000005E
:102E70000000000000820248800000000000010005
:102E80000000000009000000300201010000010004
:102E90000000000000000100020101010082024860
:102EA000070000000000000000000000000000001B
:102EB000020100000202000060000100F1000000B9
:102EC00000820248000000008800000001000000AD
:102ED00002000000008E0248030000000000000015
:102EE00000000000000000000044950820A1070039
:102EF0004C1D020000000000A088FE1F23000000FF
:102F0000000000001088FE1F00420148E82E000863
:102F1000F82E000800000000000000000000000083
:102F200000000000000000000000000000000000A1
:102F30000000000000000000000000000000000091
:102F40000000000000000000000000000000000081
:102F50000000000000000000000000000000000071
:102F60000000000000000000000000000000000061
:102F70000000000000000000000000000000000051
:102F80000000000000000000000000000000000041
:102F9000F42E0008C02E0008C82E0008D42E000809
:102FA000DC2E000801000101010101000000000009
:0C2FB00005000000000000001000000000
:102FBC00004495080100000000C000400000000023
:102FCC000044950800400148010000000044004006
:102FDC000C2E00080102000000480040202E0008C2
:102FEC0001020000004C0040342E000801020000D9
:102FFC0000500040482E0008010200001C88FE1FF3
:10300C002888FE1F3488FE1F4088FE1F5C2E000897
:10301C0000400040020100000A000000005125029F
:10302C0000050000B02E0008B42E00080088FE1F1A
:10303C0000C30040B82E0008000000009C2E0008C1
:10304C00A42E000802000100000000000000000097
:10305C006054014823010080FF0700200400000099
:10306C000000000000000000010000000000000053
:10307C0002002F00000000000000000000FF000014
:10308C00C088FE1F0489FE1F0044004000000000A1
:10309C00D088FE1FE088FE1FB02F0008AC2F000860
:1030AC004C88FE1F0000000000000000020401001C
:0400000508000201EC
:00000001FF
